:100000000C944A010C947B010C947B010C947B01B1
:100010000C947B010C947B010C947B010C947B0170
:100020000C947B010C947B010C947B010C947B0160
:100030000C947B010C94500B0C947B010C947B0171
:100040000C947B010C947B010C947B010C947B0140
:100050000C947B010C947B010C947B010C94DE03CB
:100060000C947B010C94D6040C940C050C947B012D
:100070000C947B010C947B010C947B010C947B0110
:100080000C947B010C947B010C947B010C947B0100
:100090000C947B010C947B010C947B010C947B01F0
:1000A0000C947B010C947B010C947B010C947B01E0
:1000B0000C947B010C947B010C947B010C947B01D0
:1000C0000C947B010C947B010C947B010C947B01C0
:1000D0000C947B010C947B010C947B010C947B01B0
:1000E0000C947B010B030E03FD0201030703450380
:1000F000120316031C03200324032A032E033203D6
:10010000450338033C0340030C9430060C940B0366
:100110000C9438030C9420030C940E060C943C03AE
:100120000C941C030C9440050C9401030C942403C0
:100130000C949C050C9436050C9407070C94400312
:100140000C94B0050C940E030C9416030C948305C8
:100150000C9407030C948E050C942A030C9445030D
:100160000C9412030C942E030C9432030C94FD0295
:1001700000000A0B02090C0D0E0807030401000021
:10018000000000000000000000000000000000006F
:10019000000000000000000000000000121110002C
:1001A000000000000000000000000000000000004F
:1001B000000000000000010210202008081020406C
:1001C000102040800201020108040201010204081B
:1001D00010204080804020100804020180040201A9
:1001E00080402010080402010804020101020408F2
:1001F00010204080010204081020408005050505FC
:10020000070508080808020202020A0A080804048E
:1002100004040101010101010101030303030303BC
:100220000303040707070C0C0C0C0C0C0C0C02024B
:10023000020206060606060606060B0B0B0B0B0B48
:100240000B0B000020002300260029002C002F00AB
:100250003200000100000301060109010000220034
:10026000250028002B002E00310034000201000080
:10027000050108010B0100002100240027002A00CD
:100280002D003000330001010000040107010A01C4
:100290000200400511241FBECFEFD1E2DEBFCDBF6B
:1002A00000E00CBF12E0A0E0B2E0EEE2F8E100E016
:1002B0000BBF02C007900D92AC38B107D9F723E00D
:1002C000ACE8B2E001C01D92A636B207E1F712E039
:1002D000C4E9D2E000E006C022970109FE010BBF8D
:1002E0000E94020CC239D10780E00807A9F70E94DA
:1002F000F8060C94150C0C94000026E040E855E23A
:1003000060E070E08FE992E00E94950682E090E064
:10031000909395028093940280919402909195021B
:1003200060E08630910544F40E9446038091940277
:10033000909195020196ECCF86E00E94460361E021
:1003400087E00C944603EF92FF920F931F93CF9395
:10035000DF938C01EA018FE992E00E94450761E09A
:1003600072E08FE992E00E94450710929502109288
:1003700094027E0181E0E81AF108E0919402F09184
:100380009502EC17FD0724F5EE0FFF1FE00FF11F9C
:10039000608171814AE050E08FE992E00E94070895
:1003A00080919402909195028E159F0534F465E03A
:1003B00072E08FE992E00E9445072091940230910B
:1003C00095022F5F3F4F3093950220939402D5CF33
:1003D00068E072E08FE992E0DF91CF911F910F9179
:1003E000FF90EF900C9452070F931F93CF93DF93DE
:1003F0008C01EA018FE992E00E9445076AE072E011
:100400008FE992E00E9445074AE050E0B8018FE989
:1004100092E00E940708BE018FE992E0DF91CF9140
:100420001F910F910C9452074CE052E00C94F40190
:1004300010929502109294022091940230919502AC
:1004400024173507C4F4220F331FFC01E20FF31FFA
:100450000190F081E02DDB01A20FB31FED93FC931F
:1004600020919402309195022F5F3F4F3093950277
:1004700020939402E1CF0895EF92FF920F931F9380
:10048000CF93DF93CDB7DEB728970FB6F894DEBFD2
:100490000FBECDBF86E00E94B5037C0182E090E0F4
:1004A000909395028093940200919402109195028A
:1004B00006301105ACF4802F0E94B503F801329785
:1004C000EE0FFF1F21E030E02C0F3D1FE20FF31F66
:1004D0009183808380919402909195020196E0CF60
:1004E00044E050E06DE072E0CE0101960E94A3016D
:1004F00044E050E068E172E08CE892E00E94A301E1
:1005000063E272E0C7010E941402109295021092F9
:1005100094022091940230919502243031050CF020
:1005200048C0C901880F991FE1E0F0E0EC0FFD1F02
:10053000E80FF91F40815181FC01E457FD4F6081B4
:1005400071814617570759F141305105E9F4E1141B
:10055000F10421F4FC01E65AFD4F05C0F901EE0F4C
:10056000FF1FEE59FD4F0081118120E030E0A9010D
:10057000B80187E00E940F084FE252E062E372E0A8
:10058000C8010E94F40103C087E00E943B0B44E0D5
:1005900050E06CE872E0CE0101960E941802809152
:1005A0009402909195020196909395028093940203
:1005B000B0CF6CE372E08FE992E00E9452076BE4E7
:1005C00070E080E090E00E944B0428960FB6F8940B
:1005D000DEBF0FBECDBFDF91CF911F910F91FF9076
:1005E000EF90089590E0FC013197E231F10508F0B9
:1005F0004CC0EE58FF4F0C94F10B809180008F7728
:1006000003C0809180008F7D809380000895809149
:100610008000877FF9CF84B58F7702C084B58F7D46
:1006200084BD08958091B0008F7703C08091B000A1
:100630008F7D8093B0000895809190008F7707C0E0
:10064000809190008F7D03C080919000877F809380
:10065000900008958091A0008F7707C08091A0003E
:100660008F7D03C08091A000877F8093A0000895B4
:10067000809120018F7707C0809120018F7D03C07A
:1006800080912001877F809320010895CF93DF938D
:1006900090E0FC01EA54FE4F2491FC01E450FE4F2F
:1006A0008491882349F190E0880F991FFC01EA5852
:1006B000FD4FA591B491845A9D4FFC01C591D491F1
:1006C0009FB7611108C0F8948C91209582238C9378
:1006D000888182230AC0623051F4F8948C91322FC1
:1006E000309583238C938881822B888304C0F8946F
:1006F0008C91822B8C939FBFDF91CF9108950F93A4
:100700001F93CF93DF931F92CDB7DEB7282F30E032
:10071000F901E059FE4F8491F901EA54FE4F14911A
:10072000F901E450FE4F04910023C9F0882321F021
:1007300069830E94F2026981E02FF0E0EE0FFF1F53
:10074000E45AFD4FA591B4919FB7F8948C91611133
:1007500003C01095812301C0812B8C939FBF0F9004
:10076000DF91CF911F910F910895CF93DF93282FA1
:1007700030E0F901E059FE4F8491F901EA54FE4F4F
:10078000D491F901E450FE4FC491CC2391F0811132
:100790000E94F202EC2FF0E0EE0FFF1FEE5BFD4F28
:1007A000A591B4912C912D2381E090E021F480E07B
:1007B00002C080E090E0DF91CF9108951F920F92E8
:1007C0000FB60F9211242F933F938F939F93AF9364
:1007D000BF938091970290919802A0919902B09155
:1007E0009A023091960223E0230F2D3720F40196D0
:1007F000A11DB11D05C026E8230F0296A11DB11D44
:10080000209396028093970290939802A093990266
:10081000B0939A0280919B0290919C02A0919D02BC
:10082000B0919E020196A11DB11D80939B029093F1
:100830009C02A0939D02B0939E02BF91AF919F91A5
:100840008F913F912F910F900FBE0F901F90189591
:100850003FB7F89480919B0290919C02A0919D02D9
:10086000B0919E0226B5A89B05C02F3F19F00196B6
:10087000A11DB11D3FBF6627782F892F9A2F620FC8
:10088000711D811D911D42E0660F771F881F991F02
:100890004A95D1F70895CF92DF92EF92FF92CF93CE
:1008A000DF936B017C010E942804EB01C114D10489
:1008B000E104F10489F00E94D5040E9428046C1B15
:1008C0007D0B683E734090F381E0C81AD108E108BF
:1008D000F108C851DC4FEACFDF91CF91FF90EF9044
:1008E000DF90CF900895789484B5826084BD84B5FC
:1008F000816084BD85B5826085BD85B5816085BD1B
:10090000EEE6F0E0808181608083E1E8F0E0108233
:10091000808182608083808181608083E0E8F0E074
:10092000808181608083E1EBF0E08081846080835E
:10093000E0EBF0E0808181608083E1E9F0E080819C
:1009400082608083808181608083E0E9F0E0808143
:1009500081608083E1EAF0E0808182608083808131
:1009600081608083E0EAF0E0808181608083E1E261
:10097000F1E0808182608083808181608083E0E219
:10098000F1E0808181608083EAE7F0E0808184602B
:100990008083808182608083808181608083808188
:1009A000806880831092C100089508951F920F926D
:1009B0000FB60F9211240BB60F922F938F939F9324
:1009C000EF93FF93E091AF02F091B0028081E0914C
:1009D000B502F091B60282FD12C090818091B802FA
:1009E0008F5F8F732091B902821751F0E091B802A6
:1009F000F0E0E156FD4F958F8093B80201C08081F1
:100A0000FF91EF919F918F912F910F900BBE0F90BF
:100A10000FBE0F901F9018951F920F920FB60F9256
:100A200011240BB60F922F933F934F935F936F93C5
:100A30007F938F939F93AF93BF93EF93FF938FE930
:100A400092E00E94ED05FF91EF91BF91AF919F91D0
:100A50008F917F916F915F914F913F912F910F9067
:100A60000BBE0F900FBE0F901F9018958FE992E06C
:100A70000E94830521E0892B09F420E0822F08954C
:100A80001092A2021092A10288EE93E0A0E0B0E0E2
:100A90008093A3029093A402A093A502B093A60210
:100AA0008EE692E09093A00280939F0285EC90E006
:100AB0009093AC028093AB0284EC90E09093AE02F2
:100AC0008093AD0280EC90E09093B0028093AF02EF
:100AD00081EC90E09093B2028093B10282EC90E0BE
:100AE0009093B4028093B30286EC90E09093B602A8
:100AF0008093B5021092B8021092B9021092BA0215
:100B00001092BB020895FC01818D228D90E0805CE3
:100B10009F4F821B91098F7399270895FC01918D36
:100B2000828D981731F0828DE80FF11D858D90E050
:100B300008958FEF9FEF0895FC01918D828D981796
:100B400061F0828DDF01A80FB11D5D968C91928DB1
:100B50009F5F9F73928F90E008958FEF9FEF0895AE
:100B600086E395E0892B41F080E090E0892B21F02D
:100B70000E943605811125C080E090E0892B41F06C
:100B800080E090E0892B21F00E94000081111CC0C0
:100B900080E090E0892B41F080E090E0892B21F00B
:100BA0000E940000811113C080E090E0892BA1F029
:100BB00080E090E0892B81F00E94000081110AC042
:100BC00008950E940000D8CF0E940000E1CF0E944B
:100BD0000000EACF0C9400000895FC01848DDF0131
:100BE000A80FB11DA35ABF4F2C91848D90E00196A0
:100BF0008F739927848FA689B7892C93A089B1898F
:100C00008C9180648C93938D848D981306C0028898
:100C1000F389E02D80818F7D80830895CF93DF93CA
:100C2000EC01888D8823C9F0EA89FB89808185FDE4
:100C300005C0A889B9898C9186FD0FC00FB607FC45
:100C4000F5CF808185FFF2CFA889B9898C9185FF86
:100C5000EDCFCE010E94ED05E7CFDF91CF91089552
:100C6000CF92DF92FF920F931F93CF93DF931F9248
:100C7000CDB7DEB76C0181E0D60158968C935897BA
:100C80005B969C915B975C968C915C97981307C0E0
:100C90005096ED91FC915197808185FD2EC0F60113
:100CA000038D10E00F5F1F4F0F731127F02EF60119
:100CB000848DF81211C00FB607FCF9CFD6015096FB
:100CC000ED91FC915197808185FFF1CFC601698339
:100CD0000E94ED056981EBCF838DE80FF11DE35A8A
:100CE000FF4F6083D6015B960C935B975296ED9114
:100CF000FC915397808180620CC0D6015696ED918D
:100D0000FC91579760835096ED91FC9151978081AB
:100D10008064808381E090E00F90DF91CF911F91FC
:100D20000F91FF90DF90CF900895BF92CF92DF9206
:100D3000EF92FF92CF93DF93EC016A017B01B22E19
:100D4000E889F98982E08083411581EE58076105C1
:100D50007105A1F060E079E08DE390E0A7019601D4
:100D60000E94B00B21503109410951095695479510
:100D700037952795211580E1380798F0E889F9899A
:100D8000108260E874E88EE190E0A70196010E946D
:100D9000B00B2150310941095109569547953795B6
:100DA0002795EC85FD853083EE85FF852083188EA1
:100DB000EC89FD89B082EA89FB898081806180832A
:100DC000EA89FB89808188608083EA89FB89808148
:100DD00080688083EA89FB8980818F7D8083DF91B1
:100DE000CF91FF90EF90DF90CF90BF90089508953E
:100DF0000E9473040E94F7060E947D01C0EBD5E0BB
:100E00000E943C022097E1F30E94B005F9CFCF92F7
:100E1000DF92EF92FF920F931F93CF93DF936C01BA
:100E20007A01EB01E60EF71E00E010E0CE15DF05BB
:100E300061F06991D601ED91FC910190F081E02D76
:100E4000C6011995080F191FF1CFC801DF91CF9185
:100E50001F910F91FF90EF90DF90CF900895611553
:100E6000710581F0DB010D900020E9F7AD014150E3
:100E70005109461B570BDC01ED91FC910280F38177
:100E8000E02D199480E090E008950C942F07DC0188
:100E9000ED91FC910190F081E02D19946AE772E0E8
:100EA0000C942F070F931F93CF93DF93EC010E94B5
:100EB0002F078C01CE010E944E07800F911FDF91FA
:100EC000CF911F910F9108958F929F92AF92BF92F1
:100ED000CF92DF92EF92FF920F931F93CF93DF9306
:100EE000CDB7DEB7A1970FB6F894DEBF0FBECDBF6A
:100EF0007C01C42EE52FCB01D22E19A221E02D15A5
:100F000010F02AE0D22E8E010F5D1F4F8D2C912CF8
:100F1000A12CB12C6C2D7E2FA50194010E94B00B49
:100F20008C2DD29E80191124015011098A3014F49D
:100F3000805D01C0895CF801808321153105410580
:100F4000510521F0C22EE32FCA01E4CFB801C70139
:100F50000E942F07A1960FB6F894DEBF0FBECDBF3B
:100F6000DF91CF911F910F91FF90EF90DF90CF9085
:100F7000BF90AF909F908F900895CF92DF92EF92A5
:100F8000FF920F931F93CF93DF93EC016A017B01D4
:100F90002115310579F4E881F9810190F081E02D86
:100FA000642FDF91CF911F910F91FF90EF90DF9011
:100FB000CF9019942A303105E9F477FF1AC06DE219
:100FC0000E9447078C0144275527BA014C195D0937
:100FD0006E097F092AE0CE010E946407800F911FED
:100FE000DF91CF911F910F91FF90EF90DF90CF9005
:100FF00008952AE0B701A601CE01DF91CF911F919C
:101000000F91FF90EF90DF90CF900C9464079A01BE
:10101000AB01662757FD6095762F0C94BD073F9274
:101020004F925F926F927F928F929F92AF92BF92F8
:10103000CF92DF92EF92FF920F931F93CF93DF93A4
:1010400000D01F92CDB7DEB78B0129013A019091F4
:101050000002981721F09F3F09F0BDC204C0E0E9EB
:10106000F2E0349004C180930002E0E9F2E0E49100
:10107000EF3F09F4B0C2E23009F480C074F5EE230A
:1010800009F45BC0E13009F0F1C0109280001092C9
:1010900081009091810098609093810090918100EF
:1010A000916090938100282F30E0F901E450FE4FC9
:1010B000E491F0E0EE0FFF1FE45AFD4F459154918B
:1010C00050935A0340935903F901EA54FE4F249177
:1010D0002093580333243394CCC0E43009F49EC0E9
:1010E0000CF474C0E53009F0C1C0109220011092D8
:1010F000210190912101986090932101909121010B
:10110000916090932101282F30E0F901E450FE4FC7
:10111000E491F0E0EE0FFF1FE45AFD4F459154912A
:1011200050933E0340933D03F901EA54FE4F24914E
:1011300020933C0355E0352E9CC014BC15BC94B5DF
:10114000926094BD95B5916095BD282F30E0F9016E
:10115000E450FE4FE491F0E0EE0FFF1FE45AFD4F24
:10116000459154915093610340936003F901EA540F
:10117000FE4F249120935F03312C7BC01092B0006E
:101180001092B1009091B00092609093B000909155
:10119000B10091609093B100282F30E0F901E45044
:1011A000FE4FE491F0E0EE0FFF1FE45AFD4F459132
:1011B00054915093530340935203F901EA54FE4F64
:1011C00024912093510322E0322E53C010929000BC
:1011D000109291009091910098609093910090915D
:1011E0009100916090939100282F30E0F901E45034
:1011F000FE4FE491F0E0EE0FFF1FE45AFD4F4591E2
:10120000549150934C0340934B03F901EA54FE4F21
:10121000249120934A03B3E03B2E2BC01092A000F0
:101220001092A1009091A10098609093A1009091DC
:10123000A10091609093A100282F30E0F901E450C3
:10124000FE4FE491F0E0EE0FFF1FE45AFD4F459191
:1012500054915093450340934403F901EA54FE4FDF
:1012600024912093430374E0372E03C03E2E37FCB5
:10127000B2C161E00E9446034801A12CB12C832D2C
:101280008D7F09F0C7C060E072E18AE790E0A501B8
:1012900094010E94D20B29833A834B835C836901BA
:1012A0007A0181E0C81AD108E108F1089FEFC91658
:1012B000D104E104F10409F008F49AC060E472E496
:1012C0008FE090E0A50194010E94D20B69017A01A0
:1012D000E1E0CE1AD108E108F108F2E03F1219C0AE
:1012E0008FEFC816D104E104F10409F008F48AC0B4
:1012F00060E970ED83E090E0A50194010E94D20BBB
:1013000069017A0191E0C91AD108E108F10883E086
:1013100001C082E0EFEFCE16D104E104F10409F040
:1013200008F467C068E478EE81E090E0A5019401DC
:101330000E94D20B69017A01F1E0CF1AD108E108CD
:10134000F1083320E1F082E038121BC09FEFC9168C
:10135000D104E104F10409F008F43BC164E274EF44
:1013600080E090E0A50194010E94D20B69017A010E
:10137000E1E0CE1AD108E108F10885E003C083E07E
:1013800001C084E0FFEFCF16D104E104F10489F13C
:1013900080F162E17AE780E090E0A50194010E948B
:1013A000D20B69017A0181E0C81AD108E108F1087D
:1013B000311002C084E001C086E09FEFC916D1045D
:1013C000E104F104B1F0A8F0C980DA80EB80FC8080
:1013D0009AE0F594E794D794C7949A95D1F7E1E011
:1013E000CE1AD108E108F108332031F087E00BC0B4
:1013F00081E0332011F007C085E095B5987F982BE8
:1014000095BD56C082E09091B100987F982B909343
:10141000B1004EC060E072E18AE790E0A50194015E
:101420000E94D20B69017A01F1E0CF1AD108E108DC
:10143000F108C114D10481E0E806F10488F068E401
:1014400078EE81E090E0A50194010E94D20B690141
:101450007A0191E0C91AD108E108F10893E001C0CE
:1014600091E0E1E03E1207C080918100887F892BE6
:10147000809381001DC0F3E03F1207C0809191006E
:10148000887F892B8093910013C084E0381207C0B5
:101490008091A100887F892B8093A10009C0E5E09D
:1014A0003E1206C080912101887F892B8093210103
:1014B000411451046104710471F0D801AA0FBB1FDB
:1014C000A30192010E94F70B28EE33E040E050E0C8
:1014D0000E94B00B03C02FEF3FEFA901F2E03F16CF
:1014E00009F443C0F315BCF0332081F181E03812D8
:1014F00072C0D0928900C092880020935B03309321
:101500005C0340935D0350935E0380916F008260A3
:1015100080936F0060C094E0391609F448C0391612
:10152000A4F1E5E03E1257C0D0922901C0922801F3
:1015300020933F0330934003409341035093420371
:101540008091730082608093730045C0C7BC209374
:101550006203309363034093640350936503809167
:101560006E00826080936E0036C0C092B3002093FC
:10157000540330935503409356035093570380917F
:10158000700082608093700026C0D0929900C09253
:10159000980020934D0330934E0340934F03509394
:1015A00050038091710082608093710014C0D092CA
:1015B000A900C092A80020934603309347034093AC
:1015C00048035093490380917200826080937200B7
:1015D00002C084E018CF0F900F900F900F90DF9112
:1015E000CF911F910F91FF90EF90DF90CF90BF9020
:1015F000AF909F908F907F906F905F904F903F90B3
:1016000008958230A9F028F4882349F0813051F000
:101610000895843021F1E8F0853039F10895109271
:101620006E00089580916F008D7F80936F00089504
:10163000809170008D7F8093700081E08093B00076
:101640008091B100887F84608093B1001092B300D4
:101650000895809171008D7F80937100089580912D
:1016600072008D7F809372000895809173008D7F4A
:10167000809373000895CF93C82F809100028C133C
:1016800007C0E0E9F2E084919FEF9093000201C06F
:101690008FEF0E94010B60E08C2FCF910C947F03A1
:1016A0001F920F920FB60F9211240BB60F922F9329
:1016B0003F934F935F936F937F938F939F93AF93DA
:1016C000BF93EF93FF938091540390915503A091A2
:1016D0005603B0915703892B8A2B8B2B51F1909194
:1016E0005103E0915203F091530380818927808355
:1016F0008091540390915503A0915603B0915703E4
:10170000181619061A061B06C4F48091540390910A
:101710005503A0915603B09157030197A109B10950
:101720008093540390935503A0935603B0935703AB
:1017300004C0809100020E943B0BFF91EF91BF918A
:10174000AF919F918F917F916F915F914F913F9159
:101750002F910F900BBE0F900FBE0F901F901895FA
:10176000A1E21A2EAA1BBB1BFD010DC0AA1FBB1FA5
:10177000EE1FFF1FA217B307E407F50720F0A21B17
:10178000B30BE40BF50B661F771F881F991F1A9484
:1017900069F760957095809590959B01AC01BD01AE
:1017A000CF010895052E97FB1EF400940E94E90BCB
:1017B00057FD07D00E94B00B07FC03D04EF40C94E9
:1017C000E90B50954095309521953F4F4F4F5F4F16
:1017D000089590958095709561957F4F8F4F9F4F9D
:1017E0000895EE0FFF1F0590F491E02D19940E94CB
:1017F000060CA59F900DB49F900DA49F800D911D88
:10180000112408950790F691E02D1994A29FB0013C
:10181000B39FC001A39F700D811D1124911DB29F24
:0E182000700D811D1124911D0895F894FFCFC5
:10182E00FF3A095B002C20005D003A09006B6579D8
:10183E00625F737461746500707265765F73746154
:10184E0074650073686966745F73746174650048CB
:10185E007A00637572725F66726571002D2D2D2D83
:10186E002D2D2D2D2D2D2D2D2D2D2D2D2D2D2D2D9A
:10187E002D2D2D2D2D2D2D2D2D00060126014A014C
:10188E005D018801B801EE010B0200000000300678
:10189E00070783059C058E050E060D0A006E616E08
:0C18AE0000696E66006F7666002E000078
:00000001FF
